{
	"contracts/FoundMe.sol": {
		"FoundMe": {
			"abi": [
				{
					"inputs": [],
					"name": "found",
					"outputs": [],
					"stateMutability": "payable",
					"type": "function"
				},
				{
					"inputs": [
						{
							"internalType": "address",
							"name": "_acount",
							"type": "address"
						}
					],
					"name": "getFounds",
					"outputs": [
						{
							"internalType": "uint256",
							"name": "",
							"type": "uint256"
						}
					],
					"stateMutability": "view",
					"type": "function"
				},
				{
					"inputs": [],
					"name": "getMyAmount",
					"outputs": [
						{
							"internalType": "uint256",
							"name": "",
							"type": "uint256"
						}
					],
					"stateMutability": "view",
					"type": "function"
				},
				{
					"inputs": [
						{
							"internalType": "address payable",
							"name": "_recipt",
							"type": "address"
						}
					],
					"name": "sendTip",
					"outputs": [],
					"stateMutability": "payable",
					"type": "function"
				},
				{
					"inputs": [
						{
							"internalType": "uint256",
							"name": "_amount",
							"type": "uint256"
						}
					],
					"name": "withdraw",
					"outputs": [],
					"stateMutability": "payable",
					"type": "function"
				}
			],
			"devdoc": {
				"kind": "dev",
				"methods": {},
				"version": 1
			},
			"evm": {
				"assembly": "    /* \"contracts/FoundMe.sol\":145:1017  contract FoundMe{... */\n  mstore(0x40, 0x80)\n  callvalue\n  dup1\n  iszero\n  tag_1\n  jumpi\n  0x00\n  dup1\n  revert\ntag_1:\n  pop\n  dataSize(sub_0)\n  dup1\n  dataOffset(sub_0)\n  0x00\n  codecopy\n  0x00\n  return\nstop\n\nsub_0: assembly {\n        /* \"contracts/FoundMe.sol\":145:1017  contract FoundMe{... */\n      mstore(0x40, 0x80)\n      jumpi(tag_1, lt(calldatasize, 0x04))\n      shr(0xe0, calldataload(0x00))\n      dup1\n      0x2806c9e4\n      eq\n      tag_2\n      jumpi\n      dup1\n      0x2e1a7d4d\n      eq\n      tag_3\n      jumpi\n      dup1\n      0x3d750b28\n      eq\n      tag_4\n      jumpi\n      dup1\n      0xa4e81be0\n      eq\n      tag_5\n      jumpi\n      dup1\n      0xd179a047\n      eq\n      tag_6\n      jumpi\n    tag_1:\n      0x00\n      dup1\n      revert\n        /* \"contracts/FoundMe.sol\":447:555  function getMyAmount()public view returns(uint256){... */\n    tag_2:\n      callvalue\n      dup1\n      iszero\n      tag_7\n      jumpi\n      0x00\n      dup1\n      revert\n    tag_7:\n      pop\n      tag_8\n      tag_9\n      jump\t// in\n    tag_8:\n      mload(0x40)\n      tag_10\n      swap2\n      swap1\n      tag_11\n      jump\t// in\n    tag_10:\n      mload(0x40)\n      dup1\n      swap2\n      sub\n      swap1\n      return\n        /* \"contracts/FoundMe.sol\":747:1015  function withdraw(uint256 _amount)public payable{... */\n    tag_3:\n      tag_12\n      0x04\n      dup1\n      calldatasize\n      sub\n      dup2\n      add\n      swap1\n      tag_13\n      swap2\n      swap1\n      tag_14\n      jump\t// in\n    tag_13:\n      tag_15\n      jump\t// in\n    tag_12:\n      stop\n        /* \"contracts/FoundMe.sol\":224:319  function found() public payable{... */\n    tag_4:\n      tag_16\n      tag_17\n      jump\t// in\n    tag_16:\n      stop\n        /* \"contracts/FoundMe.sol\":560:742  function sendTip(address payable _recipt)public payable{... */\n    tag_5:\n      tag_18\n      0x04\n      dup1\n      calldatasize\n      sub\n      dup2\n      add\n      swap1\n      tag_19\n      swap2\n      swap1\n      tag_20\n      jump\t// in\n    tag_19:\n      tag_21\n      jump\t// in\n    tag_18:\n      stop\n        /* \"contracts/FoundMe.sol\":324:442  function getFounds(address _acount)public view returns(uint256){... */\n    tag_6:\n      callvalue\n      dup1\n      iszero\n      tag_22\n      jumpi\n      0x00\n      dup1\n      revert\n    tag_22:\n      pop\n      tag_23\n      0x04\n      dup1\n      calldatasize\n      sub\n      dup2\n      add\n      swap1\n      tag_24\n      swap2\n      swap1\n      tag_25\n      jump\t// in\n    tag_24:\n      tag_26\n      jump\t// in\n    tag_23:\n      mload(0x40)\n      tag_27\n      swap2\n      swap1\n      tag_11\n      jump\t// in\n    tag_27:\n      mload(0x40)\n      dup1\n      swap2\n      sub\n      swap1\n      return\n        /* \"contracts/FoundMe.sol\":447:555  function getMyAmount()public view returns(uint256){... */\n    tag_9:\n        /* \"contracts/FoundMe.sol\":489:496  uint256 */\n      0x00\n        /* \"contracts/FoundMe.sol\":514:536  addressToAmountFounded */\n      dup1\n        /* \"contracts/FoundMe.sol\":514:548  addressToAmountFounded[msg.sender] */\n      0x00\n        /* \"contracts/FoundMe.sol\":537:547  msg.sender */\n      caller\n        /* \"contracts/FoundMe.sol\":514:548  addressToAmountFounded[msg.sender] */\n      0xffffffffffffffffffffffffffffffffffffffff\n      and\n      0xffffffffffffffffffffffffffffffffffffffff\n      and\n      dup2\n      mstore\n      0x20\n      add\n      swap1\n      dup2\n      mstore\n      0x20\n      add\n      0x00\n      keccak256\n      sload\n        /* \"contracts/FoundMe.sol\":507:548  return addressToAmountFounded[msg.sender] */\n      swap1\n      pop\n        /* \"contracts/FoundMe.sol\":447:555  function getMyAmount()public view returns(uint256){... */\n      swap1\n      jump\t// out\n        /* \"contracts/FoundMe.sol\":747:1015  function withdraw(uint256 _amount)public payable{... */\n    tag_15:\n        /* \"contracts/FoundMe.sol\":851:858  _amount */\n      dup1\n        /* \"contracts/FoundMe.sol\":813:835  addressToAmountFounded */\n      0x00\n        /* \"contracts/FoundMe.sol\":813:847  addressToAmountFounded[msg.sender] */\n      dup1\n        /* \"contracts/FoundMe.sol\":836:846  msg.sender */\n      caller\n        /* \"contracts/FoundMe.sol\":813:847  addressToAmountFounded[msg.sender] */\n      0xffffffffffffffffffffffffffffffffffffffff\n      and\n      0xffffffffffffffffffffffffffffffffffffffff\n      and\n      dup2\n      mstore\n      0x20\n      add\n      swap1\n      dup2\n      mstore\n      0x20\n      add\n      0x00\n      keccak256\n      sload\n        /* \"contracts/FoundMe.sol\":813:858  addressToAmountFounded[msg.sender] >= _amount */\n      lt\n      iszero\n        /* \"contracts/FoundMe.sol\":805:859  require(addressToAmountFounded[msg.sender] >= _amount) */\n      tag_30\n      jumpi\n      0x00\n      dup1\n      revert\n    tag_30:\n        /* \"contracts/FoundMe.sol\":869:894  address payable recipient */\n      0x00\n        /* \"contracts/FoundMe.sol\":905:915  msg.sender */\n      caller\n        /* \"contracts/FoundMe.sol\":869:916  address payable recipient = payable(msg.sender) */\n      swap1\n      pop\n        /* \"contracts/FoundMe.sol\":964:971  _amount */\n      dup2\n        /* \"contracts/FoundMe.sol\":926:948  addressToAmountFounded */\n      0x00\n        /* \"contracts/FoundMe.sol\":926:960  addressToAmountFounded[msg.sender] */\n      dup1\n        /* \"contracts/FoundMe.sol\":949:959  msg.sender */\n      caller\n        /* \"contracts/FoundMe.sol\":926:960  addressToAmountFounded[msg.sender] */\n      0xffffffffffffffffffffffffffffffffffffffff\n      and\n      0xffffffffffffffffffffffffffffffffffffffff\n      and\n      dup2\n      mstore\n      0x20\n      add\n      swap1\n      dup2\n      mstore\n      0x20\n      add\n      0x00\n      keccak256\n      0x00\n        /* \"contracts/FoundMe.sol\":926:971  addressToAmountFounded[msg.sender] -= _amount */\n      dup3\n      dup3\n      sload\n      tag_31\n      swap2\n      swap1\n      tag_32\n      jump\t// in\n    tag_31:\n      swap3\n      pop\n      pop\n      dup2\n      swap1\n      sstore\n      pop\n        /* \"contracts/FoundMe.sol\":981:990  recipient */\n      dup1\n        /* \"contracts/FoundMe.sol\":981:999  recipient.transfer */\n      0xffffffffffffffffffffffffffffffffffffffff\n      and\n        /* \"contracts/FoundMe.sol\":981:1008  recipient.transfer(_amount) */\n      0x08fc\n        /* \"contracts/FoundMe.sol\":1000:1007  _amount */\n      dup4\n        /* \"contracts/FoundMe.sol\":981:1008  recipient.transfer(_amount) */\n      swap1\n      dup2\n      iszero\n      mul\n      swap1\n      mload(0x40)\n      0x00\n      mload(0x40)\n      dup1\n      dup4\n      sub\n      dup2\n      dup6\n      dup9\n      dup9\n      call\n      swap4\n      pop\n      pop\n      pop\n      pop\n      iszero\n      dup1\n      iszero\n      tag_34\n      jumpi\n      returndatasize\n      0x00\n      dup1\n      returndatacopy\n      revert(0x00, returndatasize)\n    tag_34:\n      pop\n        /* \"contracts/FoundMe.sol\":795:1015  {... */\n      pop\n        /* \"contracts/FoundMe.sol\":747:1015  function withdraw(uint256 _amount)public payable{... */\n      pop\n      jump\t// out\n        /* \"contracts/FoundMe.sol\":224:319  function found() public payable{... */\n    tag_17:\n        /* \"contracts/FoundMe.sol\":303:312  msg.value */\n      callvalue\n        /* \"contracts/FoundMe.sol\":265:287  addressToAmountFounded */\n      0x00\n        /* \"contracts/FoundMe.sol\":265:299  addressToAmountFounded[msg.sender] */\n      dup1\n        /* \"contracts/FoundMe.sol\":288:298  msg.sender */\n      caller\n        /* \"contracts/FoundMe.sol\":265:299  addressToAmountFounded[msg.sender] */\n      0xffffffffffffffffffffffffffffffffffffffff\n      and\n      0xffffffffffffffffffffffffffffffffffffffff\n      and\n      dup2\n      mstore\n      0x20\n      add\n      swap1\n      dup2\n      mstore\n      0x20\n      add\n      0x00\n      keccak256\n      0x00\n        /* \"contracts/FoundMe.sol\":265:312  addressToAmountFounded[msg.sender] += msg.value */\n      dup3\n      dup3\n      sload\n      tag_36\n      swap2\n      swap1\n      tag_37\n      jump\t// in\n    tag_36:\n      swap3\n      pop\n      pop\n      dup2\n      swap1\n      sstore\n      pop\n        /* \"contracts/FoundMe.sol\":224:319  function found() public payable{... */\n      jump\t// out\n        /* \"contracts/FoundMe.sol\":560:742  function sendTip(address payable _recipt)public payable{... */\n    tag_21:\n        /* \"contracts/FoundMe.sol\":625:636  uint256 tip */\n      0x00\n        /* \"contracts/FoundMe.sol\":639:648  msg.value */\n      callvalue\n        /* \"contracts/FoundMe.sol\":625:648  uint256 tip = msg.value */\n      swap1\n      pop\n        /* \"contracts/FoundMe.sol\":658:665  _recipt */\n      dup2\n        /* \"contracts/FoundMe.sol\":658:674  _recipt.transfer */\n      0xffffffffffffffffffffffffffffffffffffffff\n      and\n        /* \"contracts/FoundMe.sol\":658:686  _recipt.transfer(tip-tip/10) */\n      0x08fc\n        /* \"contracts/FoundMe.sol\":683:685  10 */\n      0x0a\n        /* \"contracts/FoundMe.sol\":679:682  tip */\n      dup4\n        /* \"contracts/FoundMe.sol\":679:685  tip/10 */\n      tag_39\n      swap2\n      swap1\n      tag_40\n      jump\t// in\n    tag_39:\n        /* \"contracts/FoundMe.sol\":675:678  tip */\n      dup4\n        /* \"contracts/FoundMe.sol\":675:685  tip-tip/10 */\n      tag_41\n      swap2\n      swap1\n      tag_32\n      jump\t// in\n    tag_41:\n        /* \"contracts/FoundMe.sol\":658:686  _recipt.transfer(tip-tip/10) */\n      swap1\n      dup2\n      iszero\n      mul\n      swap1\n      mload(0x40)\n      0x00\n      mload(0x40)\n      dup1\n      dup4\n      sub\n      dup2\n      dup6\n      dup9\n      dup9\n      call\n      swap4\n      pop\n      pop\n      pop\n      pop\n      iszero\n      dup1\n      iszero\n      tag_43\n      jumpi\n      returndatasize\n      0x00\n      dup1\n      returndatacopy\n      revert(0x00, returndatasize)\n    tag_43:\n      pop\n        /* \"contracts/FoundMe.sol\":615:742  {... */\n      pop\n        /* \"contracts/FoundMe.sol\":560:742  function sendTip(address payable _recipt)public payable{... */\n      pop\n      jump\t// out\n        /* \"contracts/FoundMe.sol\":324:442  function getFounds(address _acount)public view returns(uint256){... */\n    tag_26:\n        /* \"contracts/FoundMe.sol\":379:386  uint256 */\n      0x00\n        /* \"contracts/FoundMe.sol\":404:426  addressToAmountFounded */\n      dup1\n        /* \"contracts/FoundMe.sol\":404:435  addressToAmountFounded[_acount] */\n      0x00\n        /* \"contracts/FoundMe.sol\":427:434  _acount */\n      dup4\n        /* \"contracts/FoundMe.sol\":404:435  addressToAmountFounded[_acount] */\n      0xffffffffffffffffffffffffffffffffffffffff\n      and\n      0xffffffffffffffffffffffffffffffffffffffff\n      and\n      dup2\n      mstore\n      0x20\n      add\n      swap1\n      dup2\n      mstore\n      0x20\n      add\n      0x00\n      keccak256\n      sload\n        /* \"contracts/FoundMe.sol\":397:435  return addressToAmountFounded[_acount] */\n      swap1\n      pop\n        /* \"contracts/FoundMe.sol\":324:442  function getFounds(address _acount)public view returns(uint256){... */\n      swap2\n      swap1\n      pop\n      jump\t// out\n        /* \"#utility.yul\":7:84   */\n    tag_45:\n        /* \"#utility.yul\":44:51   */\n      0x00\n        /* \"#utility.yul\":73:78   */\n      dup2\n        /* \"#utility.yul\":62:78   */\n      swap1\n      pop\n        /* \"#utility.yul\":7:84   */\n      swap2\n      swap1\n      pop\n      jump\t// out\n        /* \"#utility.yul\":90:208   */\n    tag_46:\n        /* \"#utility.yul\":177:201   */\n      tag_64\n        /* \"#utility.yul\":195:200   */\n      dup2\n        /* \"#utility.yul\":177:201   */\n      tag_45\n      jump\t// in\n    tag_64:\n        /* \"#utility.yul\":172:175   */\n      dup3\n        /* \"#utility.yul\":165:202   */\n      mstore\n        /* \"#utility.yul\":90:208   */\n      pop\n      pop\n      jump\t// out\n        /* \"#utility.yul\":214:436   */\n    tag_11:\n        /* \"#utility.yul\":307:311   */\n      0x00\n        /* \"#utility.yul\":345:347   */\n      0x20\n        /* \"#utility.yul\":334:343   */\n      dup3\n        /* \"#utility.yul\":330:348   */\n      add\n        /* \"#utility.yul\":322:348   */\n      swap1\n      pop\n        /* \"#utility.yul\":358:429   */\n      tag_66\n        /* \"#utility.yul\":426:427   */\n      0x00\n        /* \"#utility.yul\":415:424   */\n      dup4\n        /* \"#utility.yul\":411:428   */\n      add\n        /* \"#utility.yul\":402:408   */\n      dup5\n        /* \"#utility.yul\":358:429   */\n      tag_46\n      jump\t// in\n    tag_66:\n        /* \"#utility.yul\":214:436   */\n      swap3\n      swap2\n      pop\n      pop\n      jump\t// out\n        /* \"#utility.yul\":523:640   */\n    tag_48:\n        /* \"#utility.yul\":632:633   */\n      0x00\n        /* \"#utility.yul\":629:630   */\n      dup1\n        /* \"#utility.yul\":622:634   */\n      revert\n        /* \"#utility.yul\":769:891   */\n    tag_50:\n        /* \"#utility.yul\":842:866   */\n      tag_71\n        /* \"#utility.yul\":860:865   */\n      dup2\n        /* \"#utility.yul\":842:866   */\n      tag_45\n      jump\t// in\n    tag_71:\n        /* \"#utility.yul\":835:840   */\n      dup2\n        /* \"#utility.yul\":832:867   */\n      eq\n        /* \"#utility.yul\":822:885   */\n      tag_72\n      jumpi\n        /* \"#utility.yul\":881:882   */\n      0x00\n        /* \"#utility.yul\":878:879   */\n      dup1\n        /* \"#utility.yul\":871:883   */\n      revert\n        /* \"#utility.yul\":822:885   */\n    tag_72:\n        /* \"#utility.yul\":769:891   */\n      pop\n      jump\t// out\n        /* \"#utility.yul\":897:1036   */\n    tag_51:\n        /* \"#utility.yul\":943:948   */\n      0x00\n        /* \"#utility.yul\":981:987   */\n      dup2\n        /* \"#utility.yul\":968:988   */\n      calldataload\n        /* \"#utility.yul\":959:988   */\n      swap1\n      pop\n        /* \"#utility.yul\":997:1030   */\n      tag_74\n        /* \"#utility.yul\":1024:1029   */\n      dup2\n        /* \"#utility.yul\":997:1030   */\n      tag_50\n      jump\t// in\n    tag_74:\n        /* \"#utility.yul\":897:1036   */\n      swap3\n      swap2\n      pop\n      pop\n      jump\t// out\n        /* \"#utility.yul\":1042:1371   */\n    tag_14:\n        /* \"#utility.yul\":1101:1107   */\n      0x00\n        /* \"#utility.yul\":1150:1152   */\n      0x20\n        /* \"#utility.yul\":1138:1147   */\n      dup3\n        /* \"#utility.yul\":1129:1136   */\n      dup5\n        /* \"#utility.yul\":1125:1148   */\n      sub\n        /* \"#utility.yul\":1121:1153   */\n      slt\n        /* \"#utility.yul\":1118:1237   */\n      iszero\n      tag_76\n      jumpi\n        /* \"#utility.yul\":1156:1235   */\n      tag_77\n      tag_48\n      jump\t// in\n    tag_77:\n        /* \"#utility.yul\":1118:1237   */\n    tag_76:\n        /* \"#utility.yul\":1276:1277   */\n      0x00\n        /* \"#utility.yul\":1301:1354   */\n      tag_78\n        /* \"#utility.yul\":1346:1353   */\n      dup5\n        /* \"#utility.yul\":1337:1343   */\n      dup3\n        /* \"#utility.yul\":1326:1335   */\n      dup6\n        /* \"#utility.yul\":1322:1344   */\n      add\n        /* \"#utility.yul\":1301:1354   */\n      tag_51\n      jump\t// in\n    tag_78:\n        /* \"#utility.yul\":1291:1354   */\n      swap2\n      pop\n        /* \"#utility.yul\":1247:1364   */\n      pop\n        /* \"#utility.yul\":1042:1371   */\n      swap3\n      swap2\n      pop\n      pop\n      jump\t// out\n        /* \"#utility.yul\":1377:1503   */\n    tag_52:\n        /* \"#utility.yul\":1414:1421   */\n      0x00\n        /* \"#utility.yul\":1454:1496   */\n      0xffffffffffffffffffffffffffffffffffffffff\n        /* \"#utility.yul\":1447:1452   */\n      dup3\n        /* \"#utility.yul\":1443:1497   */\n      and\n        /* \"#utility.yul\":1432:1497   */\n      swap1\n      pop\n        /* \"#utility.yul\":1377:1503   */\n      swap2\n      swap1\n      pop\n      jump\t// out\n        /* \"#utility.yul\":1509:1613   */\n    tag_53:\n        /* \"#utility.yul\":1554:1561   */\n      0x00\n        /* \"#utility.yul\":1583:1607   */\n      tag_81\n        /* \"#utility.yul\":1601:1606   */\n      dup3\n        /* \"#utility.yul\":1583:1607   */\n      tag_52\n      jump\t// in\n    tag_81:\n        /* \"#utility.yul\":1572:1607   */\n      swap1\n      pop\n        /* \"#utility.yul\":1509:1613   */\n      swap2\n      swap1\n      pop\n      jump\t// out\n        /* \"#utility.yul\":1619:1757   */\n    tag_54:\n        /* \"#utility.yul\":1700:1732   */\n      tag_83\n        /* \"#utility.yul\":1726:1731   */\n      dup2\n        /* \"#utility.yul\":1700:1732   */\n      tag_53\n      jump\t// in\n    tag_83:\n        /* \"#utility.yul\":1693:1698   */\n      dup2\n        /* \"#utility.yul\":1690:1733   */\n      eq\n        /* \"#utility.yul\":1680:1751   */\n      tag_84\n      jumpi\n        /* \"#utility.yul\":1747:1748   */\n      0x00\n        /* \"#utility.yul\":1744:1745   */\n      dup1\n        /* \"#utility.yul\":1737:1749   */\n      revert\n        /* \"#utility.yul\":1680:1751   */\n    tag_84:\n        /* \"#utility.yul\":1619:1757   */\n      pop\n      jump\t// out\n        /* \"#utility.yul\":1763:1918   */\n    tag_55:\n        /* \"#utility.yul\":1817:1822   */\n      0x00\n        /* \"#utility.yul\":1855:1861   */\n      dup2\n        /* \"#utility.yul\":1842:1862   */\n      calldataload\n        /* \"#utility.yul\":1833:1862   */\n      swap1\n      pop\n        /* \"#utility.yul\":1871:1912   */\n      tag_86\n        /* \"#utility.yul\":1906:1911   */\n      dup2\n        /* \"#utility.yul\":1871:1912   */\n      tag_54\n      jump\t// in\n    tag_86:\n        /* \"#utility.yul\":1763:1918   */\n      swap3\n      swap2\n      pop\n      pop\n      jump\t// out\n        /* \"#utility.yul\":1924:2269   */\n    tag_20:\n        /* \"#utility.yul\":1991:1997   */\n      0x00\n        /* \"#utility.yul\":2040:2042   */\n      0x20\n        /* \"#utility.yul\":2028:2037   */\n      dup3\n        /* \"#utility.yul\":2019:2026   */\n      dup5\n        /* \"#utility.yul\":2015:2038   */\n      sub\n        /* \"#utility.yul\":2011:2043   */\n      slt\n        /* \"#utility.yul\":2008:2127   */\n      iszero\n      tag_88\n      jumpi\n        /* \"#utility.yul\":2046:2125   */\n      tag_89\n      tag_48\n      jump\t// in\n    tag_89:\n        /* \"#utility.yul\":2008:2127   */\n    tag_88:\n        /* \"#utility.yul\":2166:2167   */\n      0x00\n        /* \"#utility.yul\":2191:2252   */\n      tag_90\n        /* \"#utility.yul\":2244:2251   */\n      dup5\n        /* \"#utility.yul\":2235:2241   */\n      dup3\n        /* \"#utility.yul\":2224:2233   */\n      dup6\n        /* \"#utility.yul\":2220:2242   */\n      add\n        /* \"#utility.yul\":2191:2252   */\n      tag_55\n      jump\t// in\n    tag_90:\n        /* \"#utility.yul\":2181:2252   */\n      swap2\n      pop\n        /* \"#utility.yul\":2137:2262   */\n      pop\n        /* \"#utility.yul\":1924:2269   */\n      swap3\n      swap2\n      pop\n      pop\n      jump\t// out\n        /* \"#utility.yul\":2275:2371   */\n    tag_56:\n        /* \"#utility.yul\":2312:2319   */\n      0x00\n        /* \"#utility.yul\":2341:2365   */\n      tag_92\n        /* \"#utility.yul\":2359:2364   */\n      dup3\n        /* \"#utility.yul\":2341:2365   */\n      tag_52\n      jump\t// in\n    tag_92:\n        /* \"#utility.yul\":2330:2365   */\n      swap1\n      pop\n        /* \"#utility.yul\":2275:2371   */\n      swap2\n      swap1\n      pop\n      jump\t// out\n        /* \"#utility.yul\":2377:2499   */\n    tag_57:\n        /* \"#utility.yul\":2450:2474   */\n      tag_94\n        /* \"#utility.yul\":2468:2473   */\n      dup2\n        /* \"#utility.yul\":2450:2474   */\n      tag_56\n      jump\t// in\n    tag_94:\n        /* \"#utility.yul\":2443:2448   */\n      dup2\n        /* \"#utility.yul\":2440:2475   */\n      eq\n        /* \"#utility.yul\":2430:2493   */\n      tag_95\n      jumpi\n        /* \"#utility.yul\":2489:2490   */\n      0x00\n        /* \"#utility.yul\":2486:2487   */\n      dup1\n        /* \"#utility.yul\":2479:2491   */\n      revert\n        /* \"#utility.yul\":2430:2493   */\n    tag_95:\n        /* \"#utility.yul\":2377:2499   */\n      pop\n      jump\t// out\n        /* \"#utility.yul\":2505:2644   */\n    tag_58:\n        /* \"#utility.yul\":2551:2556   */\n      0x00\n        /* \"#utility.yul\":2589:2595   */\n      dup2\n        /* \"#utility.yul\":2576:2596   */\n      calldataload\n        /* \"#utility.yul\":2567:2596   */\n      swap1\n      pop\n        /* \"#utility.yul\":2605:2638   */\n      tag_97\n        /* \"#utility.yul\":2632:2637   */\n      dup2\n        /* \"#utility.yul\":2605:2638   */\n      tag_57\n      jump\t// in\n    tag_97:\n        /* \"#utility.yul\":2505:2644   */\n      swap3\n      swap2\n      pop\n      pop\n      jump\t// out\n        /* \"#utility.yul\":2650:2979   */\n    tag_25:\n        /* \"#utility.yul\":2709:2715   */\n      0x00\n        /* \"#utility.yul\":2758:2760   */\n      0x20\n        /* \"#utility.yul\":2746:2755   */\n      dup3\n        /* \"#utility.yul\":2737:2744   */\n      dup5\n        /* \"#utility.yul\":2733:2756   */\n      sub\n        /* \"#utility.yul\":2729:2761   */\n      slt\n        /* \"#utility.yul\":2726:2845   */\n      iszero\n      tag_99\n      jumpi\n        /* \"#utility.yul\":2764:2843   */\n      tag_100\n      tag_48\n      jump\t// in\n    tag_100:\n        /* \"#utility.yul\":2726:2845   */\n    tag_99:\n        /* \"#utility.yul\":2884:2885   */\n      0x00\n        /* \"#utility.yul\":2909:2962   */\n      tag_101\n        /* \"#utility.yul\":2954:2961   */\n      dup5\n        /* \"#utility.yul\":2945:2951   */\n      dup3\n        /* \"#utility.yul\":2934:2943   */\n      dup6\n        /* \"#utility.yul\":2930:2952   */\n      add\n        /* \"#utility.yul\":2909:2962   */\n      tag_58\n      jump\t// in\n    tag_101:\n        /* \"#utility.yul\":2899:2962   */\n      swap2\n      pop\n        /* \"#utility.yul\":2855:2972   */\n      pop\n        /* \"#utility.yul\":2650:2979   */\n      swap3\n      swap2\n      pop\n      pop\n      jump\t// out\n        /* \"#utility.yul\":2985:3165   */\n    tag_59:\n        /* \"#utility.yul\":3033:3110   */\n      0x4e487b7100000000000000000000000000000000000000000000000000000000\n        /* \"#utility.yul\":3030:3031   */\n      0x00\n        /* \"#utility.yul\":3023:3111   */\n      mstore\n        /* \"#utility.yul\":3130:3134   */\n      0x11\n        /* \"#utility.yul\":3127:3128   */\n      0x04\n        /* \"#utility.yul\":3120:3135   */\n      mstore\n        /* \"#utility.yul\":3154:3158   */\n      0x24\n        /* \"#utility.yul\":3151:3152   */\n      0x00\n        /* \"#utility.yul\":3144:3159   */\n      revert\n        /* \"#utility.yul\":3171:3365   */\n    tag_32:\n        /* \"#utility.yul\":3211:3215   */\n      0x00\n        /* \"#utility.yul\":3231:3251   */\n      tag_104\n        /* \"#utility.yul\":3249:3250   */\n      dup3\n        /* \"#utility.yul\":3231:3251   */\n      tag_45\n      jump\t// in\n    tag_104:\n        /* \"#utility.yul\":3226:3251   */\n      swap2\n      pop\n        /* \"#utility.yul\":3265:3285   */\n      tag_105\n        /* \"#utility.yul\":3283:3284   */\n      dup4\n        /* \"#utility.yul\":3265:3285   */\n      tag_45\n      jump\t// in\n    tag_105:\n        /* \"#utility.yul\":3260:3285   */\n      swap3\n      pop\n        /* \"#utility.yul\":3309:3310   */\n      dup3\n        /* \"#utility.yul\":3306:3307   */\n      dup3\n        /* \"#utility.yul\":3302:3311   */\n      sub\n        /* \"#utility.yul\":3294:3311   */\n      swap1\n      pop\n        /* \"#utility.yul\":3333:3334   */\n      dup2\n        /* \"#utility.yul\":3327:3331   */\n      dup2\n        /* \"#utility.yul\":3324:3335   */\n      gt\n        /* \"#utility.yul\":3321:3358   */\n      iszero\n      tag_106\n      jumpi\n        /* \"#utility.yul\":3338:3356   */\n      tag_107\n      tag_59\n      jump\t// in\n    tag_107:\n        /* \"#utility.yul\":3321:3358   */\n    tag_106:\n        /* \"#utility.yul\":3171:3365   */\n      swap3\n      swap2\n      pop\n      pop\n      jump\t// out\n        /* \"#utility.yul\":3371:3562   */\n    tag_37:\n        /* \"#utility.yul\":3411:3414   */\n      0x00\n        /* \"#utility.yul\":3430:3450   */\n      tag_109\n        /* \"#utility.yul\":3448:3449   */\n      dup3\n        /* \"#utility.yul\":3430:3450   */\n      tag_45\n      jump\t// in\n    tag_109:\n        /* \"#utility.yul\":3425:3450   */\n      swap2\n      pop\n        /* \"#utility.yul\":3464:3484   */\n      tag_110\n        /* \"#utility.yul\":3482:3483   */\n      dup4\n        /* \"#utility.yul\":3464:3484   */\n      tag_45\n      jump\t// in\n    tag_110:\n        /* \"#utility.yul\":3459:3484   */\n      swap3\n      pop\n        /* \"#utility.yul\":3507:3508   */\n      dup3\n        /* \"#utility.yul\":3504:3505   */\n      dup3\n        /* \"#utility.yul\":3500:3509   */\n      add\n        /* \"#utility.yul\":3493:3509   */\n      swap1\n      pop\n        /* \"#utility.yul\":3528:3531   */\n      dup1\n        /* \"#utility.yul\":3525:3526   */\n      dup3\n        /* \"#utility.yul\":3522:3532   */\n      gt\n        /* \"#utility.yul\":3519:3555   */\n      iszero\n      tag_111\n      jumpi\n        /* \"#utility.yul\":3535:3553   */\n      tag_112\n      tag_59\n      jump\t// in\n    tag_112:\n        /* \"#utility.yul\":3519:3555   */\n    tag_111:\n        /* \"#utility.yul\":3371:3562   */\n      swap3\n      swap2\n      pop\n      pop\n      jump\t// out\n        /* \"#utility.yul\":3568:3748   */\n    tag_60:\n        /* \"#utility.yul\":3616:3693   */\n      0x4e487b7100000000000000000000000000000000000000000000000000000000\n        /* \"#utility.yul\":3613:3614   */\n      0x00\n        /* \"#utility.yul\":3606:3694   */\n      mstore\n        /* \"#utility.yul\":3713:3717   */\n      0x12\n        /* \"#utility.yul\":3710:3711   */\n      0x04\n        /* \"#utility.yul\":3703:3718   */\n      mstore\n        /* \"#utility.yul\":3737:3741   */\n      0x24\n        /* \"#utility.yul\":3734:3735   */\n      0x00\n        /* \"#utility.yul\":3727:3742   */\n      revert\n        /* \"#utility.yul\":3754:3939   */\n    tag_40:\n        /* \"#utility.yul\":3794:3795   */\n      0x00\n        /* \"#utility.yul\":3811:3831   */\n      tag_115\n        /* \"#utility.yul\":3829:3830   */\n      dup3\n        /* \"#utility.yul\":3811:3831   */\n      tag_45\n      jump\t// in\n    tag_115:\n        /* \"#utility.yul\":3806:3831   */\n      swap2\n      pop\n        /* \"#utility.yul\":3845:3865   */\n      tag_116\n        /* \"#utility.yul\":3863:3864   */\n      dup4\n        /* \"#utility.yul\":3845:3865   */\n      tag_45\n      jump\t// in\n    tag_116:\n        /* \"#utility.yul\":3840:3865   */\n      swap3\n      pop\n        /* \"#utility.yul\":3884:3885   */\n      dup3\n        /* \"#utility.yul\":3874:3909   */\n      tag_117\n      jumpi\n        /* \"#utility.yul\":3889:3907   */\n      tag_118\n      tag_60\n      jump\t// in\n    tag_118:\n        /* \"#utility.yul\":3874:3909   */\n    tag_117:\n        /* \"#utility.yul\":3931:3932   */\n      dup3\n        /* \"#utility.yul\":3928:3929   */\n      dup3\n        /* \"#utility.yul\":3924:3933   */\n      div\n        /* \"#utility.yul\":3919:3933   */\n      swap1\n      pop\n        /* \"#utility.yul\":3754:3939   */\n      swap3\n      swap2\n      pop\n      pop\n      jump\t// out\n\n    auxdata: 0xa264697066735822122090acd01cb0bf347e7cdedd5d2c59f4ea234dd32a5d898321717285472ec6af6e64736f6c63430008120033\n}\n",
				"bytecode": {
					"linkReferences": {},
					"object": "608060405234801561001057600080fd5b506105ea806100206000396000f3fe60806040526004361061004a5760003560e01c80632806c9e41461004f5780632e1a7d4d1461007a5780633d750b2814610096578063a4e81be0146100a0578063d179a047146100bc575b600080fd5b34801561005b57600080fd5b506100646100f9565b604051610071919061034e565b60405180910390f35b610094600480360381019061008f919061039a565b61013f565b005b61009e61022f565b005b6100ba60048036038101906100b59190610425565b610286565b005b3480156100c857600080fd5b506100e360048036038101906100de9190610490565b6102ed565b6040516100f0919061034e565b60405180910390f35b60008060003373ffffffffffffffffffffffffffffffffffffffff1673ffffffffffffffffffffffffffffffffffffffff16815260200190815260200160002054905090565b806000803373ffffffffffffffffffffffffffffffffffffffff1673ffffffffffffffffffffffffffffffffffffffff16815260200190815260200160002054101561018a57600080fd5b6000339050816000803373ffffffffffffffffffffffffffffffffffffffff1673ffffffffffffffffffffffffffffffffffffffff16815260200190815260200160002060008282546101dd91906104ec565b925050819055508073ffffffffffffffffffffffffffffffffffffffff166108fc839081150290604051600060405180830381858888f1935050505015801561022a573d6000803e3d6000fd5b505050565b346000803373ffffffffffffffffffffffffffffffffffffffff1673ffffffffffffffffffffffffffffffffffffffff168152602001908152602001600020600082825461027d9190610520565b92505081905550565b60003490508173ffffffffffffffffffffffffffffffffffffffff166108fc600a836102b29190610583565b836102bd91906104ec565b9081150290604051600060405180830381858888f193505050501580156102e8573d6000803e3d6000fd5b505050565b60008060008373ffffffffffffffffffffffffffffffffffffffff1673ffffffffffffffffffffffffffffffffffffffff168152602001908152602001600020549050919050565b6000819050919050565b61034881610335565b82525050565b6000602082019050610363600083018461033f565b92915050565b600080fd5b61037781610335565b811461038257600080fd5b50565b6000813590506103948161036e565b92915050565b6000602082840312156103b0576103af610369565b5b60006103be84828501610385565b91505092915050565b600073ffffffffffffffffffffffffffffffffffffffff82169050919050565b60006103f2826103c7565b9050919050565b610402816103e7565b811461040d57600080fd5b50565b60008135905061041f816103f9565b92915050565b60006020828403121561043b5761043a610369565b5b600061044984828501610410565b91505092915050565b600061045d826103c7565b9050919050565b61046d81610452565b811461047857600080fd5b50565b60008135905061048a81610464565b92915050565b6000602082840312156104a6576104a5610369565b5b60006104b48482850161047b565b91505092915050565b7f4e487b7100000000000000000000000000000000000000000000000000000000600052601160045260246000fd5b60006104f782610335565b915061050283610335565b925082820390508181111561051a576105196104bd565b5b92915050565b600061052b82610335565b915061053683610335565b925082820190508082111561054e5761054d6104bd565b5b92915050565b7f4e487b7100000000000000000000000000000000000000000000000000000000600052601260045260246000fd5b600061058e82610335565b915061059983610335565b9250826105a9576105a8610554565b5b82820490509291505056fea264697066735822122090acd01cb0bf347e7cdedd5d2c59f4ea234dd32a5d898321717285472ec6af6e64736f6c63430008120033",
					"opcodes": "PUSH1 0x80 PUSH1 0x40 MSTORE CALLVALUE DUP1 ISZERO PUSH2 0x10 JUMPI PUSH1 0x0 DUP1 REVERT JUMPDEST POP PUSH2 0x5EA DUP1 PUSH2 0x20 PUSH1 0x0 CODECOPY PUSH1 0x0 RETURN INVALID PUSH1 0x80 PUSH1 0x40 MSTORE PUSH1 0x4 CALLDATASIZE LT PUSH2 0x4A JUMPI PUSH1 0x0 CALLDATALOAD PUSH1 0xE0 SHR DUP1 PUSH4 0x2806C9E4 EQ PUSH2 0x4F JUMPI DUP1 PUSH4 0x2E1A7D4D EQ PUSH2 0x7A JUMPI DUP1 PUSH4 0x3D750B28 EQ PUSH2 0x96 JUMPI DUP1 PUSH4 0xA4E81BE0 EQ PUSH2 0xA0 JUMPI DUP1 PUSH4 0xD179A047 EQ PUSH2 0xBC JUMPI JUMPDEST PUSH1 0x0 DUP1 REVERT JUMPDEST CALLVALUE DUP1 ISZERO PUSH2 0x5B JUMPI PUSH1 0x0 DUP1 REVERT JUMPDEST POP PUSH2 0x64 PUSH2 0xF9 JUMP JUMPDEST PUSH1 0x40 MLOAD PUSH2 0x71 SWAP2 SWAP1 PUSH2 0x34E JUMP JUMPDEST PUSH1 0x40 MLOAD DUP1 SWAP2 SUB SWAP1 RETURN JUMPDEST PUSH2 0x94 PUSH1 0x4 DUP1 CALLDATASIZE SUB DUP2 ADD SWAP1 PUSH2 0x8F SWAP2 SWAP1 PUSH2 0x39A JUMP JUMPDEST PUSH2 0x13F JUMP JUMPDEST STOP JUMPDEST PUSH2 0x9E PUSH2 0x22F JUMP JUMPDEST STOP JUMPDEST PUSH2 0xBA PUSH1 0x4 DUP1 CALLDATASIZE SUB DUP2 ADD SWAP1 PUSH2 0xB5 SWAP2 SWAP1 PUSH2 0x425 JUMP JUMPDEST PUSH2 0x286 JUMP JUMPDEST STOP JUMPDEST CALLVALUE DUP1 ISZERO PUSH2 0xC8 JUMPI PUSH1 0x0 DUP1 REVERT JUMPDEST POP PUSH2 0xE3 PUSH1 0x4 DUP1 CALLDATASIZE SUB DUP2 ADD SWAP1 PUSH2 0xDE SWAP2 SWAP1 PUSH2 0x490 JUMP JUMPDEST PUSH2 0x2ED JUMP JUMPDEST PUSH1 0x40 MLOAD PUSH2 0xF0 SWAP2 SWAP1 PUSH2 0x34E JUMP JUMPDEST PUSH1 0x40 MLOAD DUP1 SWAP2 SUB SWAP1 RETURN JUMPDEST PUSH1 0x0 DUP1 PUSH1 0x0 CALLER PUSH20 0xFFFFFFFFFFFFFFFFFFFFFFFFFFFFFFFFFFFFFFFF AND PUSH20 0xFFFFFFFFFFFFFFFFFFFFFFFFFFFFFFFFFFFFFFFF AND DUP2 MSTORE PUSH1 0x20 ADD SWAP1 DUP2 MSTORE PUSH1 0x20 ADD PUSH1 0x0 KECCAK256 SLOAD SWAP1 POP SWAP1 JUMP JUMPDEST DUP1 PUSH1 0x0 DUP1 CALLER PUSH20 0xFFFFFFFFFFFFFFFFFFFFFFFFFFFFFFFFFFFFFFFF AND PUSH20 0xFFFFFFFFFFFFFFFFFFFFFFFFFFFFFFFFFFFFFFFF AND DUP2 MSTORE PUSH1 0x20 ADD SWAP1 DUP2 MSTORE PUSH1 0x20 ADD PUSH1 0x0 KECCAK256 SLOAD LT ISZERO PUSH2 0x18A JUMPI PUSH1 0x0 DUP1 REVERT JUMPDEST PUSH1 0x0 CALLER SWAP1 POP DUP2 PUSH1 0x0 DUP1 CALLER PUSH20 0xFFFFFFFFFFFFFFFFFFFFFFFFFFFFFFFFFFFFFFFF AND PUSH20 0xFFFFFFFFFFFFFFFFFFFFFFFFFFFFFFFFFFFFFFFF AND DUP2 MSTORE PUSH1 0x20 ADD SWAP1 DUP2 MSTORE PUSH1 0x20 ADD PUSH1 0x0 KECCAK256 PUSH1 0x0 DUP3 DUP3 SLOAD PUSH2 0x1DD SWAP2 SWAP1 PUSH2 0x4EC JUMP JUMPDEST SWAP3 POP POP DUP2 SWAP1 SSTORE POP DUP1 PUSH20 0xFFFFFFFFFFFFFFFFFFFFFFFFFFFFFFFFFFFFFFFF AND PUSH2 0x8FC DUP4 SWAP1 DUP2 ISZERO MUL SWAP1 PUSH1 0x40 MLOAD PUSH1 0x0 PUSH1 0x40 MLOAD DUP1 DUP4 SUB DUP2 DUP6 DUP9 DUP9 CALL SWAP4 POP POP POP POP ISZERO DUP1 ISZERO PUSH2 0x22A JUMPI RETURNDATASIZE PUSH1 0x0 DUP1 RETURNDATACOPY RETURNDATASIZE PUSH1 0x0 REVERT JUMPDEST POP POP POP JUMP JUMPDEST CALLVALUE PUSH1 0x0 DUP1 CALLER PUSH20 0xFFFFFFFFFFFFFFFFFFFFFFFFFFFFFFFFFFFFFFFF AND PUSH20 0xFFFFFFFFFFFFFFFFFFFFFFFFFFFFFFFFFFFFFFFF AND DUP2 MSTORE PUSH1 0x20 ADD SWAP1 DUP2 MSTORE PUSH1 0x20 ADD PUSH1 0x0 KECCAK256 PUSH1 0x0 DUP3 DUP3 SLOAD PUSH2 0x27D SWAP2 SWAP1 PUSH2 0x520 JUMP JUMPDEST SWAP3 POP POP DUP2 SWAP1 SSTORE POP JUMP JUMPDEST PUSH1 0x0 CALLVALUE SWAP1 POP DUP2 PUSH20 0xFFFFFFFFFFFFFFFFFFFFFFFFFFFFFFFFFFFFFFFF AND PUSH2 0x8FC PUSH1 0xA DUP4 PUSH2 0x2B2 SWAP2 SWAP1 PUSH2 0x583 JUMP JUMPDEST DUP4 PUSH2 0x2BD SWAP2 SWAP1 PUSH2 0x4EC JUMP JUMPDEST SWAP1 DUP2 ISZERO MUL SWAP1 PUSH1 0x40 MLOAD PUSH1 0x0 PUSH1 0x40 MLOAD DUP1 DUP4 SUB DUP2 DUP6 DUP9 DUP9 CALL SWAP4 POP POP POP POP ISZERO DUP1 ISZERO PUSH2 0x2E8 JUMPI RETURNDATASIZE PUSH1 0x0 DUP1 RETURNDATACOPY RETURNDATASIZE PUSH1 0x0 REVERT JUMPDEST POP POP POP JUMP JUMPDEST PUSH1 0x0 DUP1 PUSH1 0x0 DUP4 PUSH20 0xFFFFFFFFFFFFFFFFFFFFFFFFFFFFFFFFFFFFFFFF AND PUSH20 0xFFFFFFFFFFFFFFFFFFFFFFFFFFFFFFFFFFFFFFFF AND DUP2 MSTORE PUSH1 0x20 ADD SWAP1 DUP2 MSTORE PUSH1 0x20 ADD PUSH1 0x0 KECCAK256 SLOAD SWAP1 POP SWAP2 SWAP1 POP JUMP JUMPDEST PUSH1 0x0 DUP2 SWAP1 POP SWAP2 SWAP1 POP JUMP JUMPDEST PUSH2 0x348 DUP2 PUSH2 0x335 JUMP JUMPDEST DUP3 MSTORE POP POP JUMP JUMPDEST PUSH1 0x0 PUSH1 0x20 DUP3 ADD SWAP1 POP PUSH2 0x363 PUSH1 0x0 DUP4 ADD DUP5 PUSH2 0x33F JUMP JUMPDEST SWAP3 SWAP2 POP POP JUMP JUMPDEST PUSH1 0x0 DUP1 REVERT JUMPDEST PUSH2 0x377 DUP2 PUSH2 0x335 JUMP JUMPDEST DUP2 EQ PUSH2 0x382 JUMPI PUSH1 0x0 DUP1 REVERT JUMPDEST POP JUMP JUMPDEST PUSH1 0x0 DUP2 CALLDATALOAD SWAP1 POP PUSH2 0x394 DUP2 PUSH2 0x36E JUMP JUMPDEST SWAP3 SWAP2 POP POP JUMP JUMPDEST PUSH1 0x0 PUSH1 0x20 DUP3 DUP5 SUB SLT ISZERO PUSH2 0x3B0 JUMPI PUSH2 0x3AF PUSH2 0x369 JUMP JUMPDEST JUMPDEST PUSH1 0x0 PUSH2 0x3BE DUP5 DUP3 DUP6 ADD PUSH2 0x385 JUMP JUMPDEST SWAP2 POP POP SWAP3 SWAP2 POP POP JUMP JUMPDEST PUSH1 0x0 PUSH20 0xFFFFFFFFFFFFFFFFFFFFFFFFFFFFFFFFFFFFFFFF DUP3 AND SWAP1 POP SWAP2 SWAP1 POP JUMP JUMPDEST PUSH1 0x0 PUSH2 0x3F2 DUP3 PUSH2 0x3C7 JUMP JUMPDEST SWAP1 POP SWAP2 SWAP1 POP JUMP JUMPDEST PUSH2 0x402 DUP2 PUSH2 0x3E7 JUMP JUMPDEST DUP2 EQ PUSH2 0x40D JUMPI PUSH1 0x0 DUP1 REVERT JUMPDEST POP JUMP JUMPDEST PUSH1 0x0 DUP2 CALLDATALOAD SWAP1 POP PUSH2 0x41F DUP2 PUSH2 0x3F9 JUMP JUMPDEST SWAP3 SWAP2 POP POP JUMP JUMPDEST PUSH1 0x0 PUSH1 0x20 DUP3 DUP5 SUB SLT ISZERO PUSH2 0x43B JUMPI PUSH2 0x43A PUSH2 0x369 JUMP JUMPDEST JUMPDEST PUSH1 0x0 PUSH2 0x449 DUP5 DUP3 DUP6 ADD PUSH2 0x410 JUMP JUMPDEST SWAP2 POP POP SWAP3 SWAP2 POP POP JUMP JUMPDEST PUSH1 0x0 PUSH2 0x45D DUP3 PUSH2 0x3C7 JUMP JUMPDEST SWAP1 POP SWAP2 SWAP1 POP JUMP JUMPDEST PUSH2 0x46D DUP2 PUSH2 0x452 JUMP JUMPDEST DUP2 EQ PUSH2 0x478 JUMPI PUSH1 0x0 DUP1 REVERT JUMPDEST POP JUMP JUMPDEST PUSH1 0x0 DUP2 CALLDATALOAD SWAP1 POP PUSH2 0x48A DUP2 PUSH2 0x464 JUMP JUMPDEST SWAP3 SWAP2 POP POP JUMP JUMPDEST PUSH1 0x0 PUSH1 0x20 DUP3 DUP5 SUB SLT ISZERO PUSH2 0x4A6 JUMPI PUSH2 0x4A5 PUSH2 0x369 JUMP JUMPDEST JUMPDEST PUSH1 0x0 PUSH2 0x4B4 DUP5 DUP3 DUP6 ADD PUSH2 0x47B JUMP JUMPDEST SWAP2 POP POP SWAP3 SWAP2 POP POP JUMP JUMPDEST PUSH32 0x4E487B7100000000000000000000000000000000000000000000000000000000 PUSH1 0x0 MSTORE PUSH1 0x11 PUSH1 0x4 MSTORE PUSH1 0x24 PUSH1 0x0 REVERT JUMPDEST PUSH1 0x0 PUSH2 0x4F7 DUP3 PUSH2 0x335 JUMP JUMPDEST SWAP2 POP PUSH2 0x502 DUP4 PUSH2 0x335 JUMP JUMPDEST SWAP3 POP DUP3 DUP3 SUB SWAP1 POP DUP2 DUP2 GT ISZERO PUSH2 0x51A JUMPI PUSH2 0x519 PUSH2 0x4BD JUMP JUMPDEST JUMPDEST SWAP3 SWAP2 POP POP JUMP JUMPDEST PUSH1 0x0 PUSH2 0x52B DUP3 PUSH2 0x335 JUMP JUMPDEST SWAP2 POP PUSH2 0x536 DUP4 PUSH2 0x335 JUMP JUMPDEST SWAP3 POP DUP3 DUP3 ADD SWAP1 POP DUP1 DUP3 GT ISZERO PUSH2 0x54E JUMPI PUSH2 0x54D PUSH2 0x4BD JUMP JUMPDEST JUMPDEST SWAP3 SWAP2 POP POP JUMP JUMPDEST PUSH32 0x4E487B7100000000000000000000000000000000000000000000000000000000 PUSH1 0x0 MSTORE PUSH1 0x12 PUSH1 0x4 MSTORE PUSH1 0x24 PUSH1 0x0 REVERT JUMPDEST PUSH1 0x0 PUSH2 0x58E DUP3 PUSH2 0x335 JUMP JUMPDEST SWAP2 POP PUSH2 0x599 DUP4 PUSH2 0x335 JUMP JUMPDEST SWAP3 POP DUP3 PUSH2 0x5A9 JUMPI PUSH2 0x5A8 PUSH2 0x554 JUMP JUMPDEST JUMPDEST DUP3 DUP3 DIV SWAP1 POP SWAP3 SWAP2 POP POP JUMP INVALID LOG2 PUSH5 0x6970667358 0x22 SLT KECCAK256 SWAP1 0xAC 0xD0 SHR 0xB0 0xBF CALLVALUE PUSH31 0x7CDEDD5D2C59F4EA234DD32A5D898321717285472EC6AF6E64736F6C634300 ADDMOD SLT STOP CALLER "
				},
				"gasEstimates": {
					"creation": {
						"codeDepositCost": "302800",
						"executionCost": "343",
						"totalCost": "303143"
					},
					"external": {
						"found()": "infinite",
						"getFounds(address)": "2907",
						"getMyAmount()": "2504",
						"sendTip(address)": "infinite",
						"withdraw(uint256)": "infinite"
					}
				},
				"methodIdentifiers": {
					"found()": "3d750b28",
					"getFounds(address)": "d179a047",
					"getMyAmount()": "2806c9e4",
					"sendTip(address)": "a4e81be0",
					"withdraw(uint256)": "2e1a7d4d"
				}
			},
			"storageLayout": {
				"storage": [
					{
						"astId": 5,
						"contract": "contracts/FoundMe.sol:FoundMe",
						"label": "addressToAmountFounded",
						"offset": 0,
						"slot": "0",
						"type": "t_mapping(t_address,t_uint256)"
					}
				],
				"types": {
					"t_address": {
						"encoding": "inplace",
						"label": "address",
						"numberOfBytes": "20"
					},
					"t_mapping(t_address,t_uint256)": {
						"encoding": "mapping",
						"key": "t_address",
						"label": "mapping(address => uint256)",
						"numberOfBytes": "32",
						"value": "t_uint256"
					},
					"t_uint256": {
						"encoding": "inplace",
						"label": "uint256",
						"numberOfBytes": "32"
					}
				}
			},
			"userdoc": {
				"kind": "user",
				"methods": {},
				"version": 1
			}
		}
	}
}