{
	"contracts/FoundMe.sol": {
		"FoundMe": {
			"abi": [
				{
					"inputs": [],
					"name": "found",
					"outputs": [],
					"stateMutability": "payable",
					"type": "function"
				},
				{
					"inputs": [
						{
							"internalType": "address",
							"name": "_acount",
							"type": "address"
						}
					],
					"name": "getFounds",
					"outputs": [
						{
							"internalType": "uint256",
							"name": "",
							"type": "uint256"
						}
					],
					"stateMutability": "view",
					"type": "function"
				},
				{
					"inputs": [],
					"name": "getMyAmount",
					"outputs": [
						{
							"internalType": "uint256",
							"name": "",
							"type": "uint256"
						}
					],
					"stateMutability": "view",
					"type": "function"
				}
			],
			"devdoc": {
				"kind": "dev",
				"methods": {},
				"version": 1
			},
			"evm": {
				"assembly": "    /* \"contracts/FoundMe.sol\":144:556  contract FoundMe{... */\n  mstore(0x40, 0x80)\n  callvalue\n  dup1\n  iszero\n  tag_1\n  jumpi\n  0x00\n  dup1\n  revert\ntag_1:\n  pop\n  dataSize(sub_0)\n  dup1\n  dataOffset(sub_0)\n  0x00\n  codecopy\n  0x00\n  return\nstop\n\nsub_0: assembly {\n        /* \"contracts/FoundMe.sol\":144:556  contract FoundMe{... */\n      mstore(0x40, 0x80)\n      jumpi(tag_1, lt(calldatasize, 0x04))\n      shr(0xe0, calldataload(0x00))\n      dup1\n      0x2806c9e4\n      eq\n      tag_2\n      jumpi\n      dup1\n      0x3d750b28\n      eq\n      tag_3\n      jumpi\n      dup1\n      0xd179a047\n      eq\n      tag_4\n      jumpi\n    tag_1:\n      0x00\n      dup1\n      revert\n        /* \"contracts/FoundMe.sol\":446:554  function getMyAmount()public view returns(uint256){... */\n    tag_2:\n      callvalue\n      dup1\n      iszero\n      tag_5\n      jumpi\n      0x00\n      dup1\n      revert\n    tag_5:\n      pop\n      tag_6\n      tag_7\n      jump\t// in\n    tag_6:\n      mload(0x40)\n      tag_8\n      swap2\n      swap1\n      tag_9\n      jump\t// in\n    tag_8:\n      mload(0x40)\n      dup1\n      swap2\n      sub\n      swap1\n      return\n        /* \"contracts/FoundMe.sol\":223:318  function found() public payable{... */\n    tag_3:\n      tag_10\n      tag_11\n      jump\t// in\n    tag_10:\n      stop\n        /* \"contracts/FoundMe.sol\":323:441  function getFounds(address _acount)public view returns(uint256){... */\n    tag_4:\n      callvalue\n      dup1\n      iszero\n      tag_12\n      jumpi\n      0x00\n      dup1\n      revert\n    tag_12:\n      pop\n      tag_13\n      0x04\n      dup1\n      calldatasize\n      sub\n      dup2\n      add\n      swap1\n      tag_14\n      swap2\n      swap1\n      tag_15\n      jump\t// in\n    tag_14:\n      tag_16\n      jump\t// in\n    tag_13:\n      mload(0x40)\n      tag_17\n      swap2\n      swap1\n      tag_9\n      jump\t// in\n    tag_17:\n      mload(0x40)\n      dup1\n      swap2\n      sub\n      swap1\n      return\n        /* \"contracts/FoundMe.sol\":446:554  function getMyAmount()public view returns(uint256){... */\n    tag_7:\n        /* \"contracts/FoundMe.sol\":488:495  uint256 */\n      0x00\n        /* \"contracts/FoundMe.sol\":513:535  addressToAmountFounded */\n      dup1\n        /* \"contracts/FoundMe.sol\":513:547  addressToAmountFounded[msg.sender] */\n      0x00\n        /* \"contracts/FoundMe.sol\":536:546  msg.sender */\n      caller\n        /* \"contracts/FoundMe.sol\":513:547  addressToAmountFounded[msg.sender] */\n      0xffffffffffffffffffffffffffffffffffffffff\n      and\n      0xffffffffffffffffffffffffffffffffffffffff\n      and\n      dup2\n      mstore\n      0x20\n      add\n      swap1\n      dup2\n      mstore\n      0x20\n      add\n      0x00\n      keccak256\n      sload\n        /* \"contracts/FoundMe.sol\":506:547  return addressToAmountFounded[msg.sender] */\n      swap1\n      pop\n        /* \"contracts/FoundMe.sol\":446:554  function getMyAmount()public view returns(uint256){... */\n      swap1\n      jump\t// out\n        /* \"contracts/FoundMe.sol\":223:318  function found() public payable{... */\n    tag_11:\n        /* \"contracts/FoundMe.sol\":302:311  msg.value */\n      callvalue\n        /* \"contracts/FoundMe.sol\":264:286  addressToAmountFounded */\n      0x00\n        /* \"contracts/FoundMe.sol\":264:298  addressToAmountFounded[msg.sender] */\n      dup1\n        /* \"contracts/FoundMe.sol\":287:297  msg.sender */\n      caller\n        /* \"contracts/FoundMe.sol\":264:298  addressToAmountFounded[msg.sender] */\n      0xffffffffffffffffffffffffffffffffffffffff\n      and\n      0xffffffffffffffffffffffffffffffffffffffff\n      and\n      dup2\n      mstore\n      0x20\n      add\n      swap1\n      dup2\n      mstore\n      0x20\n      add\n      0x00\n      keccak256\n      0x00\n        /* \"contracts/FoundMe.sol\":264:311  addressToAmountFounded[msg.sender] += msg.value */\n      dup3\n      dup3\n      sload\n      tag_20\n      swap2\n      swap1\n      tag_21\n      jump\t// in\n    tag_20:\n      swap3\n      pop\n      pop\n      dup2\n      swap1\n      sstore\n      pop\n        /* \"contracts/FoundMe.sol\":223:318  function found() public payable{... */\n      jump\t// out\n        /* \"contracts/FoundMe.sol\":323:441  function getFounds(address _acount)public view returns(uint256){... */\n    tag_16:\n        /* \"contracts/FoundMe.sol\":378:385  uint256 */\n      0x00\n        /* \"contracts/FoundMe.sol\":403:425  addressToAmountFounded */\n      dup1\n        /* \"contracts/FoundMe.sol\":403:434  addressToAmountFounded[_acount] */\n      0x00\n        /* \"contracts/FoundMe.sol\":426:433  _acount */\n      dup4\n        /* \"contracts/FoundMe.sol\":403:434  addressToAmountFounded[_acount] */\n      0xffffffffffffffffffffffffffffffffffffffff\n      and\n      0xffffffffffffffffffffffffffffffffffffffff\n      and\n      dup2\n      mstore\n      0x20\n      add\n      swap1\n      dup2\n      mstore\n      0x20\n      add\n      0x00\n      keccak256\n      sload\n        /* \"contracts/FoundMe.sol\":396:434  return addressToAmountFounded[_acount] */\n      swap1\n      pop\n        /* \"contracts/FoundMe.sol\":323:441  function getFounds(address _acount)public view returns(uint256){... */\n      swap2\n      swap1\n      pop\n      jump\t// out\n        /* \"#utility.yul\":7:84   */\n    tag_23:\n        /* \"#utility.yul\":44:51   */\n      0x00\n        /* \"#utility.yul\":73:78   */\n      dup2\n        /* \"#utility.yul\":62:78   */\n      swap1\n      pop\n        /* \"#utility.yul\":7:84   */\n      swap2\n      swap1\n      pop\n      jump\t// out\n        /* \"#utility.yul\":90:208   */\n    tag_24:\n        /* \"#utility.yul\":177:201   */\n      tag_36\n        /* \"#utility.yul\":195:200   */\n      dup2\n        /* \"#utility.yul\":177:201   */\n      tag_23\n      jump\t// in\n    tag_36:\n        /* \"#utility.yul\":172:175   */\n      dup3\n        /* \"#utility.yul\":165:202   */\n      mstore\n        /* \"#utility.yul\":90:208   */\n      pop\n      pop\n      jump\t// out\n        /* \"#utility.yul\":214:436   */\n    tag_9:\n        /* \"#utility.yul\":307:311   */\n      0x00\n        /* \"#utility.yul\":345:347   */\n      0x20\n        /* \"#utility.yul\":334:343   */\n      dup3\n        /* \"#utility.yul\":330:348   */\n      add\n        /* \"#utility.yul\":322:348   */\n      swap1\n      pop\n        /* \"#utility.yul\":358:429   */\n      tag_38\n        /* \"#utility.yul\":426:427   */\n      0x00\n        /* \"#utility.yul\":415:424   */\n      dup4\n        /* \"#utility.yul\":411:428   */\n      add\n        /* \"#utility.yul\":402:408   */\n      dup5\n        /* \"#utility.yul\":358:429   */\n      tag_24\n      jump\t// in\n    tag_38:\n        /* \"#utility.yul\":214:436   */\n      swap3\n      swap2\n      pop\n      pop\n      jump\t// out\n        /* \"#utility.yul\":523:640   */\n    tag_26:\n        /* \"#utility.yul\":632:633   */\n      0x00\n        /* \"#utility.yul\":629:630   */\n      dup1\n        /* \"#utility.yul\":622:634   */\n      revert\n        /* \"#utility.yul\":769:895   */\n    tag_28:\n        /* \"#utility.yul\":806:813   */\n      0x00\n        /* \"#utility.yul\":846:888   */\n      0xffffffffffffffffffffffffffffffffffffffff\n        /* \"#utility.yul\":839:844   */\n      dup3\n        /* \"#utility.yul\":835:889   */\n      and\n        /* \"#utility.yul\":824:889   */\n      swap1\n      pop\n        /* \"#utility.yul\":769:895   */\n      swap2\n      swap1\n      pop\n      jump\t// out\n        /* \"#utility.yul\":901:997   */\n    tag_29:\n        /* \"#utility.yul\":938:945   */\n      0x00\n        /* \"#utility.yul\":967:991   */\n      tag_44\n        /* \"#utility.yul\":985:990   */\n      dup3\n        /* \"#utility.yul\":967:991   */\n      tag_28\n      jump\t// in\n    tag_44:\n        /* \"#utility.yul\":956:991   */\n      swap1\n      pop\n        /* \"#utility.yul\":901:997   */\n      swap2\n      swap1\n      pop\n      jump\t// out\n        /* \"#utility.yul\":1003:1125   */\n    tag_30:\n        /* \"#utility.yul\":1076:1100   */\n      tag_46\n        /* \"#utility.yul\":1094:1099   */\n      dup2\n        /* \"#utility.yul\":1076:1100   */\n      tag_29\n      jump\t// in\n    tag_46:\n        /* \"#utility.yul\":1069:1074   */\n      dup2\n        /* \"#utility.yul\":1066:1101   */\n      eq\n        /* \"#utility.yul\":1056:1119   */\n      tag_47\n      jumpi\n        /* \"#utility.yul\":1115:1116   */\n      0x00\n        /* \"#utility.yul\":1112:1113   */\n      dup1\n        /* \"#utility.yul\":1105:1117   */\n      revert\n        /* \"#utility.yul\":1056:1119   */\n    tag_47:\n        /* \"#utility.yul\":1003:1125   */\n      pop\n      jump\t// out\n        /* \"#utility.yul\":1131:1270   */\n    tag_31:\n        /* \"#utility.yul\":1177:1182   */\n      0x00\n        /* \"#utility.yul\":1215:1221   */\n      dup2\n        /* \"#utility.yul\":1202:1222   */\n      calldataload\n        /* \"#utility.yul\":1193:1222   */\n      swap1\n      pop\n        /* \"#utility.yul\":1231:1264   */\n      tag_49\n        /* \"#utility.yul\":1258:1263   */\n      dup2\n        /* \"#utility.yul\":1231:1264   */\n      tag_30\n      jump\t// in\n    tag_49:\n        /* \"#utility.yul\":1131:1270   */\n      swap3\n      swap2\n      pop\n      pop\n      jump\t// out\n        /* \"#utility.yul\":1276:1605   */\n    tag_15:\n        /* \"#utility.yul\":1335:1341   */\n      0x00\n        /* \"#utility.yul\":1384:1386   */\n      0x20\n        /* \"#utility.yul\":1372:1381   */\n      dup3\n        /* \"#utility.yul\":1363:1370   */\n      dup5\n        /* \"#utility.yul\":1359:1382   */\n      sub\n        /* \"#utility.yul\":1355:1387   */\n      slt\n        /* \"#utility.yul\":1352:1471   */\n      iszero\n      tag_51\n      jumpi\n        /* \"#utility.yul\":1390:1469   */\n      tag_52\n      tag_26\n      jump\t// in\n    tag_52:\n        /* \"#utility.yul\":1352:1471   */\n    tag_51:\n        /* \"#utility.yul\":1510:1511   */\n      0x00\n        /* \"#utility.yul\":1535:1588   */\n      tag_53\n        /* \"#utility.yul\":1580:1587   */\n      dup5\n        /* \"#utility.yul\":1571:1577   */\n      dup3\n        /* \"#utility.yul\":1560:1569   */\n      dup6\n        /* \"#utility.yul\":1556:1578   */\n      add\n        /* \"#utility.yul\":1535:1588   */\n      tag_31\n      jump\t// in\n    tag_53:\n        /* \"#utility.yul\":1525:1588   */\n      swap2\n      pop\n        /* \"#utility.yul\":1481:1598   */\n      pop\n        /* \"#utility.yul\":1276:1605   */\n      swap3\n      swap2\n      pop\n      pop\n      jump\t// out\n        /* \"#utility.yul\":1611:1791   */\n    tag_32:\n        /* \"#utility.yul\":1659:1736   */\n      0x4e487b7100000000000000000000000000000000000000000000000000000000\n        /* \"#utility.yul\":1656:1657   */\n      0x00\n        /* \"#utility.yul\":1649:1737   */\n      mstore\n        /* \"#utility.yul\":1756:1760   */\n      0x11\n        /* \"#utility.yul\":1753:1754   */\n      0x04\n        /* \"#utility.yul\":1746:1761   */\n      mstore\n        /* \"#utility.yul\":1780:1784   */\n      0x24\n        /* \"#utility.yul\":1777:1778   */\n      0x00\n        /* \"#utility.yul\":1770:1785   */\n      revert\n        /* \"#utility.yul\":1797:1988   */\n    tag_21:\n        /* \"#utility.yul\":1837:1840   */\n      0x00\n        /* \"#utility.yul\":1856:1876   */\n      tag_56\n        /* \"#utility.yul\":1874:1875   */\n      dup3\n        /* \"#utility.yul\":1856:1876   */\n      tag_23\n      jump\t// in\n    tag_56:\n        /* \"#utility.yul\":1851:1876   */\n      swap2\n      pop\n        /* \"#utility.yul\":1890:1910   */\n      tag_57\n        /* \"#utility.yul\":1908:1909   */\n      dup4\n        /* \"#utility.yul\":1890:1910   */\n      tag_23\n      jump\t// in\n    tag_57:\n        /* \"#utility.yul\":1885:1910   */\n      swap3\n      pop\n        /* \"#utility.yul\":1933:1934   */\n      dup3\n        /* \"#utility.yul\":1930:1931   */\n      dup3\n        /* \"#utility.yul\":1926:1935   */\n      add\n        /* \"#utility.yul\":1919:1935   */\n      swap1\n      pop\n        /* \"#utility.yul\":1954:1957   */\n      dup1\n        /* \"#utility.yul\":1951:1952   */\n      dup3\n        /* \"#utility.yul\":1948:1958   */\n      gt\n        /* \"#utility.yul\":1945:1981   */\n      iszero\n      tag_58\n      jumpi\n        /* \"#utility.yul\":1961:1979   */\n      tag_59\n      tag_32\n      jump\t// in\n    tag_59:\n        /* \"#utility.yul\":1945:1981   */\n    tag_58:\n        /* \"#utility.yul\":1797:1988   */\n      swap3\n      swap2\n      pop\n      pop\n      jump\t// out\n\n    auxdata: 0xa2646970667358221220588bebff1f4e0e2ad4e29d8c9709e42668230c9a4b66d94af63aa6aaeaddf3e864736f6c63430008120033\n}\n",
				"bytecode": {
					"linkReferences": {},
					"object": "608060405234801561001057600080fd5b506102ed806100206000396000f3fe6080604052600436106100345760003560e01c80632806c9e4146100395780633d750b2814610064578063d179a0471461006e575b600080fd5b34801561004557600080fd5b5061004e6100ab565b60405161005b91906101a9565b60405180910390f35b61006c6100f1565b005b34801561007a57600080fd5b5061009560048036038101906100909190610227565b610148565b6040516100a291906101a9565b60405180910390f35b60008060003373ffffffffffffffffffffffffffffffffffffffff1673ffffffffffffffffffffffffffffffffffffffff16815260200190815260200160002054905090565b346000803373ffffffffffffffffffffffffffffffffffffffff1673ffffffffffffffffffffffffffffffffffffffff168152602001908152602001600020600082825461013f9190610283565b92505081905550565b60008060008373ffffffffffffffffffffffffffffffffffffffff1673ffffffffffffffffffffffffffffffffffffffff168152602001908152602001600020549050919050565b6000819050919050565b6101a381610190565b82525050565b60006020820190506101be600083018461019a565b92915050565b600080fd5b600073ffffffffffffffffffffffffffffffffffffffff82169050919050565b60006101f4826101c9565b9050919050565b610204816101e9565b811461020f57600080fd5b50565b600081359050610221816101fb565b92915050565b60006020828403121561023d5761023c6101c4565b5b600061024b84828501610212565b91505092915050565b7f4e487b7100000000000000000000000000000000000000000000000000000000600052601160045260246000fd5b600061028e82610190565b915061029983610190565b92508282019050808211156102b1576102b0610254565b5b9291505056fea2646970667358221220588bebff1f4e0e2ad4e29d8c9709e42668230c9a4b66d94af63aa6aaeaddf3e864736f6c63430008120033",
					"opcodes": "PUSH1 0x80 PUSH1 0x40 MSTORE CALLVALUE DUP1 ISZERO PUSH2 0x10 JUMPI PUSH1 0x0 DUP1 REVERT JUMPDEST POP PUSH2 0x2ED DUP1 PUSH2 0x20 PUSH1 0x0 CODECOPY PUSH1 0x0 RETURN INVALID PUSH1 0x80 PUSH1 0x40 MSTORE PUSH1 0x4 CALLDATASIZE LT PUSH2 0x34 JUMPI PUSH1 0x0 CALLDATALOAD PUSH1 0xE0 SHR DUP1 PUSH4 0x2806C9E4 EQ PUSH2 0x39 JUMPI DUP1 PUSH4 0x3D750B28 EQ PUSH2 0x64 JUMPI DUP1 PUSH4 0xD179A047 EQ PUSH2 0x6E JUMPI JUMPDEST PUSH1 0x0 DUP1 REVERT JUMPDEST CALLVALUE DUP1 ISZERO PUSH2 0x45 JUMPI PUSH1 0x0 DUP1 REVERT JUMPDEST POP PUSH2 0x4E PUSH2 0xAB JUMP JUMPDEST PUSH1 0x40 MLOAD PUSH2 0x5B SWAP2 SWAP1 PUSH2 0x1A9 JUMP JUMPDEST PUSH1 0x40 MLOAD DUP1 SWAP2 SUB SWAP1 RETURN JUMPDEST PUSH2 0x6C PUSH2 0xF1 JUMP JUMPDEST STOP JUMPDEST CALLVALUE DUP1 ISZERO PUSH2 0x7A JUMPI PUSH1 0x0 DUP1 REVERT JUMPDEST POP PUSH2 0x95 PUSH1 0x4 DUP1 CALLDATASIZE SUB DUP2 ADD SWAP1 PUSH2 0x90 SWAP2 SWAP1 PUSH2 0x227 JUMP JUMPDEST PUSH2 0x148 JUMP JUMPDEST PUSH1 0x40 MLOAD PUSH2 0xA2 SWAP2 SWAP1 PUSH2 0x1A9 JUMP JUMPDEST PUSH1 0x40 MLOAD DUP1 SWAP2 SUB SWAP1 RETURN JUMPDEST PUSH1 0x0 DUP1 PUSH1 0x0 CALLER PUSH20 0xFFFFFFFFFFFFFFFFFFFFFFFFFFFFFFFFFFFFFFFF AND PUSH20 0xFFFFFFFFFFFFFFFFFFFFFFFFFFFFFFFFFFFFFFFF AND DUP2 MSTORE PUSH1 0x20 ADD SWAP1 DUP2 MSTORE PUSH1 0x20 ADD PUSH1 0x0 KECCAK256 SLOAD SWAP1 POP SWAP1 JUMP JUMPDEST CALLVALUE PUSH1 0x0 DUP1 CALLER PUSH20 0xFFFFFFFFFFFFFFFFFFFFFFFFFFFFFFFFFFFFFFFF AND PUSH20 0xFFFFFFFFFFFFFFFFFFFFFFFFFFFFFFFFFFFFFFFF AND DUP2 MSTORE PUSH1 0x20 ADD SWAP1 DUP2 MSTORE PUSH1 0x20 ADD PUSH1 0x0 KECCAK256 PUSH1 0x0 DUP3 DUP3 SLOAD PUSH2 0x13F SWAP2 SWAP1 PUSH2 0x283 JUMP JUMPDEST SWAP3 POP POP DUP2 SWAP1 SSTORE POP JUMP JUMPDEST PUSH1 0x0 DUP1 PUSH1 0x0 DUP4 PUSH20 0xFFFFFFFFFFFFFFFFFFFFFFFFFFFFFFFFFFFFFFFF AND PUSH20 0xFFFFFFFFFFFFFFFFFFFFFFFFFFFFFFFFFFFFFFFF AND DUP2 MSTORE PUSH1 0x20 ADD SWAP1 DUP2 MSTORE PUSH1 0x20 ADD PUSH1 0x0 KECCAK256 SLOAD SWAP1 POP SWAP2 SWAP1 POP JUMP JUMPDEST PUSH1 0x0 DUP2 SWAP1 POP SWAP2 SWAP1 POP JUMP JUMPDEST PUSH2 0x1A3 DUP2 PUSH2 0x190 JUMP JUMPDEST DUP3 MSTORE POP POP JUMP JUMPDEST PUSH1 0x0 PUSH1 0x20 DUP3 ADD SWAP1 POP PUSH2 0x1BE PUSH1 0x0 DUP4 ADD DUP5 PUSH2 0x19A JUMP JUMPDEST SWAP3 SWAP2 POP POP JUMP JUMPDEST PUSH1 0x0 DUP1 REVERT JUMPDEST PUSH1 0x0 PUSH20 0xFFFFFFFFFFFFFFFFFFFFFFFFFFFFFFFFFFFFFFFF DUP3 AND SWAP1 POP SWAP2 SWAP1 POP JUMP JUMPDEST PUSH1 0x0 PUSH2 0x1F4 DUP3 PUSH2 0x1C9 JUMP JUMPDEST SWAP1 POP SWAP2 SWAP1 POP JUMP JUMPDEST PUSH2 0x204 DUP2 PUSH2 0x1E9 JUMP JUMPDEST DUP2 EQ PUSH2 0x20F JUMPI PUSH1 0x0 DUP1 REVERT JUMPDEST POP JUMP JUMPDEST PUSH1 0x0 DUP2 CALLDATALOAD SWAP1 POP PUSH2 0x221 DUP2 PUSH2 0x1FB JUMP JUMPDEST SWAP3 SWAP2 POP POP JUMP JUMPDEST PUSH1 0x0 PUSH1 0x20 DUP3 DUP5 SUB SLT ISZERO PUSH2 0x23D JUMPI PUSH2 0x23C PUSH2 0x1C4 JUMP JUMPDEST JUMPDEST PUSH1 0x0 PUSH2 0x24B DUP5 DUP3 DUP6 ADD PUSH2 0x212 JUMP JUMPDEST SWAP2 POP POP SWAP3 SWAP2 POP POP JUMP JUMPDEST PUSH32 0x4E487B7100000000000000000000000000000000000000000000000000000000 PUSH1 0x0 MSTORE PUSH1 0x11 PUSH1 0x4 MSTORE PUSH1 0x24 PUSH1 0x0 REVERT JUMPDEST PUSH1 0x0 PUSH2 0x28E DUP3 PUSH2 0x190 JUMP JUMPDEST SWAP2 POP PUSH2 0x299 DUP4 PUSH2 0x190 JUMP JUMPDEST SWAP3 POP DUP3 DUP3 ADD SWAP1 POP DUP1 DUP3 GT ISZERO PUSH2 0x2B1 JUMPI PUSH2 0x2B0 PUSH2 0x254 JUMP JUMPDEST JUMPDEST SWAP3 SWAP2 POP POP JUMP INVALID LOG2 PUSH5 0x6970667358 0x22 SLT KECCAK256 PC DUP12 0xEB SELFDESTRUCT 0x1F 0x4E 0xE 0x2A 0xD4 0xE2 SWAP14 DUP13 SWAP8 MULMOD 0xE4 0x26 PUSH9 0x230C9A4B66D94AF63A 0xA6 0xAA 0xEA 0xDD RETURN 0xE8 PUSH5 0x736F6C6343 STOP ADDMOD SLT STOP CALLER "
				},
				"gasEstimates": {
					"creation": {
						"codeDepositCost": "149800",
						"executionCost": "196",
						"totalCost": "149996"
					},
					"external": {
						"found()": "infinite",
						"getFounds(address)": "2863",
						"getMyAmount()": "2504"
					}
				},
				"methodIdentifiers": {
					"found()": "3d750b28",
					"getFounds(address)": "d179a047",
					"getMyAmount()": "2806c9e4"
				}
			},
			"storageLayout": {
				"storage": [
					{
						"astId": 52,
						"contract": "contracts/FoundMe.sol:FoundMe",
						"label": "addressToAmountFounded",
						"offset": 0,
						"slot": "0",
						"type": "t_mapping(t_address,t_uint256)"
					}
				],
				"types": {
					"t_address": {
						"encoding": "inplace",
						"label": "address",
						"numberOfBytes": "20"
					},
					"t_mapping(t_address,t_uint256)": {
						"encoding": "mapping",
						"key": "t_address",
						"label": "mapping(address => uint256)",
						"numberOfBytes": "32",
						"value": "t_uint256"
					},
					"t_uint256": {
						"encoding": "inplace",
						"label": "uint256",
						"numberOfBytes": "32"
					}
				}
			},
			"userdoc": {
				"kind": "user",
				"methods": {},
				"version": 1
			}
		}
	}
}